S02700004449435F32315F30315F323032315F554152545F355F54494D45525F494E542E737265632E
S11300000C943E000C945B000C945B000C945B001D
S11300100C945B000C945B000C945B000C945B00F0
S11300200C945B000C945B000C945B000C945B00E0
S11300300C945B000C9400010C945B000C945B002A
S11300400C945B000C945B000C945B000C945B00C0
S11300500C94C7000C945B000C945B000C945B0044
S11300600C945B000C945B000C945B000C945B00A0
S11300700C945B000C945B000C945B0011241FBE79
S1130080CFEFD0E1DEBFCDBF11E0A0E0B1E0E8E505
S1130090F2E002C005900D92A230B107D9F721E039
S11300A0A2E0B1E001C01D92A330B207E1F70E94C3
S11300B0B4000C942A010C940000ECE7F0E0808179
S11300C080668083EAE7F0E08081876E808308950C
S11300D087E690E09093C5008093C400E1ECF0E0E3
S11300E0808180688083808188618083E2ECF0E095
S11300F08081866080830895E0ECF0E0908195FF34
S1130100FDCF8093C6000895E1E8F0E0808181602E
S1130110808380818D7F8083808184608083089543
S1130120E1E8F0E080818E7F808380818D7F808311
S113013080818B7F808310928500109284000895C3
S1130140E1E8F0E08081886080830E94900082E191
S11301509AE79093890080938800EFE6F0E080812D
S113016082608083789408950E945D000E946800F4
S11301700E94A000C9E7D0E003C088810E947C00EF
S11301808091000190910101892BB9F3F9CF1F925D
S11301900F920FB60F9211242F933F934F935F93B7
S11301A06F937F938F939F93AF93BF93EF93FF933B
S11301B08091C60080930201873639F410920101C0
S11301C0109200010E9484000AC0833741F481E048
S11301D090E090930101809300010E949000FF91B0
S11301E0EF91BF91AF919F918F917F916F915F91AB
S11301F04F913F912F910F900FBE0F901F90189524
S11302001F920F920FB60F9211242F933F934F9387
S11302105F936F937F938F939F93AF93BF93EF936A
S1130220FF9381E090E090930101809300010E948C
S11302309000FF91EF91BF91AF919F918F917F912A
S11302406F915F914F913F912F910F900FBE0F903F
S10B02501F901895F894FFCFEC
S105025801009F
S9030000FC
